:100000000A128A11FC2F00308A000408840A820731
:100010000034203449346E346634653472346934C3
:100020006F3472342034203420342034203420348F
:1000300020340034203453347534703465347234D1
:1000400069346F3472342034203420342034203426
:1000500020342034003441344C3454344F34203470
:1000600000344D344534443449344F34003456342C
:1000700041345A3449344F340034423441344934E1
:0600800058344F34003437
:100B1A00831603138510081388130800831603131A
:100B2A0007148714071587150716871605178517DB
:100B3A000800F5007508F40006300310F40DFF3EB6
:100B4A00031DA22D730874077F39803E0A128A1189
:100B5A0062260A128A110800BF2DC730F200B52D8D
:100B6A00F20BB42DB82DB92D0130F0020030031C60
:100B7A00F103F10270087104031DC42DC52DB22DB5
:100B8A000800F2008312031308167208F0000430FA
:100B9A000310F00CFF3E031DCD2D0F307005F10040
:100BAA000808F0397104880088120D30F000F00B43
:100BBA00DC2D83120313881608160F307205F00015
:100BCA000808F0397004880088120D30F000F00B24
:100BDA00EC2D8312031388160800FA007608F80031
:100BEA007808F9007608F8007808F3007A080A12FB
:100BFA008A119E250A128A11162E770884000A1273
:100C0A008A1103200A128A110A128A11C6250A12A7
:100C1A008A110130F8007808F7070130F8007808DF
:100C2A00F907770884000A128A1103200A128A1126
:100C3A00003A031D212E222E022E08006430F000F5
:100C4A000030F1000A128A11B1250A128A1183169C
:100C5A0003130810881008118811081288126430CA
:100C6A00F0000030F1000A128A11B1250A128A1125
:100C7A0083120313881628300A128A1162260A126E
:100C8A008A110C300A128A1162260A128A1101305C
:100C9A000A128A1162260A128A1102300A128A116B
:100CAA0062260A128A116430F0000030F1000A123A
:100CBA008A11B1250A128A110800F200831203135D
:100CCA0008127208F00004300310F00CFF3E031DF6
:100CDA00692E0F307005F1000808F0397104880098
:100CEA008812720303197A2E7B2E812E0230720625
:100CFA00031D802E812E8B2E0330F1009730F000D9
:100D0A00F00B852EF10B852E8A2E8F2E0D30F000DA
:100D1A00F00B8D2E831203138816F0307205F00043
:100D2A0020307006031D9A2E9B2EB32E08127208CD
:100D3A00F00004300310F00CFF3E031D9F2E0F300D
:100D4A007005F1000808F0397104880088120D3026
:100D5A00F000F00BAE2E83120313881608120F3020
:100D6A007205F0000808F0397004880088127203CE
:100D7A000319C02EC12EC72E02307206031DC62EBD
:100D8A00C72ED12E0330F1009730F000F00BCB2E96
:100D9A00F10BCB2ED02ED52E0D30F000F00BD32E2A
:100DAA0083120313881608000A128A1123260A12CC
:100DBA008A110A128A1193250A128A110A128A11B1
:100DCA008D250A128A11F6011230FB007B08F70002
:100DDA0000300A128A11F2250A128A11F60101302C
:100DEA00FB007B08F70001300A128A11F2250A1269
:100DFA008A1183120313071C032F042F1A2F871833
:100E0A00072F082F1A2F07190B2F0C2F1A2F0A300A
:100E1A00FB007B08F6003530FC007C08F700013047
:100E2A000A128A11F2250A128A1183120313871CE5
:100E3A001F2F202F322F0719232F242F322F0A304A
:100E4A00FB007B08F6002930FC007C08F700013023
:100E5A000A128A11F2250A128A1183120313071D34
:100E6A00372F382F462F0A30FB007B08F600233035
:100E7A00FC007C08F70001300A128A11F2250A12D6
:100E8A008A118312031307184B2F4C2F622F8718CE
:100E9A004F2F502F622F0719532F542F622F0A30CA
:100EAA00FB007B08F6002F30FC007C08F7000130BD
:100EBA000A128A11F2250A128A1183120313871D54
:100ECA00672F682F7E2F071A6B2F6C2F7E2F871A9A
:100EDA006F2F702F7E2F0A30FB007B08F60035300B
:100EEA00FC007C08F70000300A128A11F2250A1267
:100EFA008A1183120313071E832F842F962F871AB2
:100F0A00872F882F962F0A30FB007B08F60029309E
:100F1A00FC007C08F70000300A128A11F2250A1236
:100F2A008A1183120313871E9B2F9C2FAA2F0A3024
:100F3A00FB007B08F6002330FC007C08F700003039
:100F4A000A128A11F2250A128A11831203138719C7
:100F5A00AF2FB02FC62F071AB32FB42FC62F871A59
:100F6A00B72FB82FC62F0A30FB007B08F6002F30A8
:100F7A00FC007C08F70000300A128A11F2250A12D6
:100F8A008A11831203130719CB2FCC2FD32F051FD6
:100F9A00CF2FD02FD22F8514D32F8510071DD62FF0
:100FAA00D72FD82F8510871ADB2FDC2FE32F851F29
:100FBA00DF2FE02FE22F8817E32F8813871EE62FF3
:100FCA00E72FE82F8813871AEB2FEC2FF32F881FB0
:100FDA00EF2FF02FF22F0817F32F0813871EF62F83
:100FEA00F72FFE2E0813FE2E0A128A1100288301FB
:060FFA000A128A11D92E33
:08400000FF3FFF3FFF3FFF3FC0
:04400E00D420FF3F7C
:00000001FF
